{
  "contractName": "TollBoothsManager",
  "abi": [
    {
      "constant": true,
      "inputs": [],
      "name": "totalTollBooths",
      "outputs": [
        {
          "name": "",
          "type": "uint256"
        }
      ],
      "payable": false,
      "stateMutability": "view",
      "type": "function"
    },
    {
      "constant": false,
      "inputs": [],
      "name": "renounceOwnership",
      "outputs": [],
      "payable": false,
      "stateMutability": "nonpayable",
      "type": "function"
    },
    {
      "constant": true,
      "inputs": [],
      "name": "owner",
      "outputs": [
        {
          "name": "",
          "type": "address"
        }
      ],
      "payable": false,
      "stateMutability": "view",
      "type": "function"
    },
    {
      "constant": true,
      "inputs": [],
      "name": "isOwner",
      "outputs": [
        {
          "name": "",
          "type": "bool"
        }
      ],
      "payable": false,
      "stateMutability": "view",
      "type": "function"
    },
    {
      "constant": true,
      "inputs": [
        {
          "name": "",
          "type": "uint256"
        }
      ],
      "name": "tollBoothsAdditional",
      "outputs": [
        {
          "name": "completeTarget",
          "type": "bool"
        },
        {
          "name": "numTickets",
          "type": "uint8"
        },
        {
          "name": "numAdditionalRepairs",
          "type": "uint8"
        }
      ],
      "payable": false,
      "stateMutability": "view",
      "type": "function"
    },
    {
      "constant": true,
      "inputs": [
        {
          "name": "",
          "type": "uint256"
        }
      ],
      "name": "tollBooths",
      "outputs": [
        {
          "name": "name",
          "type": "string"
        },
        {
          "name": "location",
          "type": "string"
        },
        {
          "name": "description",
          "type": "string"
        },
        {
          "name": "investment",
          "type": "uint256"
        },
        {
          "name": "totalRevenue",
          "type": "uint256"
        },
        {
          "name": "startTime",
          "type": "string"
        },
        {
          "name": "operatorUnit",
          "type": "string"
        },
        {
          "name": "taxCode",
          "type": "uint256"
        },
        {
          "name": "activate",
          "type": "bool"
        }
      ],
      "payable": false,
      "stateMutability": "view",
      "type": "function"
    },
    {
      "constant": false,
      "inputs": [
        {
          "name": "newOwner",
          "type": "address"
        }
      ],
      "name": "transferOwnership",
      "outputs": [],
      "payable": false,
      "stateMutability": "nonpayable",
      "type": "function"
    },
    {
      "inputs": [],
      "payable": false,
      "stateMutability": "nonpayable",
      "type": "constructor"
    },
    {
      "anonymous": false,
      "inputs": [
        {
          "indexed": true,
          "name": "tollBoothId",
          "type": "uint256"
        },
        {
          "indexed": true,
          "name": "ticketId",
          "type": "bytes32"
        },
        {
          "indexed": false,
          "name": "name",
          "type": "string"
        },
        {
          "indexed": false,
          "name": "price",
          "type": "uint256"
        },
        {
          "indexed": false,
          "name": "vehicles",
          "type": "string"
        },
        {
          "indexed": false,
          "name": "version",
          "type": "uint64"
        },
        {
          "indexed": false,
          "name": "paymentAddress",
          "type": "address"
        },
        {
          "indexed": false,
          "name": "time",
          "type": "uint256"
        }
      ],
      "name": "CreateTicket",
      "type": "event"
    },
    {
      "anonymous": false,
      "inputs": [
        {
          "indexed": true,
          "name": "tollBoothId",
          "type": "uint256"
        },
        {
          "indexed": true,
          "name": "ticketId",
          "type": "bytes32"
        },
        {
          "indexed": false,
          "name": "name",
          "type": "string"
        },
        {
          "indexed": false,
          "name": "price",
          "type": "uint256"
        },
        {
          "indexed": false,
          "name": "vehicles",
          "type": "string"
        },
        {
          "indexed": false,
          "name": "version",
          "type": "uint64"
        },
        {
          "indexed": false,
          "name": "paymentAddress",
          "type": "address"
        },
        {
          "indexed": false,
          "name": "time",
          "type": "uint256"
        }
      ],
      "name": "TicketUpdate",
      "type": "event"
    },
    {
      "anonymous": false,
      "inputs": [
        {
          "indexed": true,
          "name": "tollBoothId",
          "type": "bytes32"
        }
      ],
      "name": "BuyTicket",
      "type": "event"
    },
    {
      "anonymous": false,
      "inputs": [
        {
          "indexed": true,
          "name": "previousOwner",
          "type": "address"
        },
        {
          "indexed": true,
          "name": "newOwner",
          "type": "address"
        }
      ],
      "name": "OwnershipTransferred",
      "type": "event"
    },
    {
      "constant": false,
      "inputs": [
        {
          "name": "_name",
          "type": "string"
        },
        {
          "name": "_location",
          "type": "string"
        },
        {
          "name": "_description",
          "type": "string"
        },
        {
          "name": "_investment",
          "type": "uint256"
        },
        {
          "name": "_startTime",
          "type": "string"
        },
        {
          "name": "_operatorUnit",
          "type": "string"
        },
        {
          "name": "_taxCode",
          "type": "uint256"
        },
        {
          "name": "_activate",
          "type": "bool"
        }
      ],
      "name": "createNewTollBooth",
      "outputs": [],
      "payable": false,
      "stateMutability": "nonpayable",
      "type": "function"
    },
    {
      "constant": true,
      "inputs": [
        {
          "name": "id",
          "type": "uint256"
        }
      ],
      "name": "getTollBoothDetails",
      "outputs": [
        {
          "name": "",
          "type": "string"
        },
        {
          "name": "",
          "type": "string"
        },
        {
          "name": "",
          "type": "string"
        },
        {
          "name": "",
          "type": "uint256"
        },
        {
          "name": "",
          "type": "uint256"
        },
        {
          "name": "",
          "type": "string"
        },
        {
          "name": "",
          "type": "string"
        },
        {
          "name": "",
          "type": "uint256"
        },
        {
          "name": "",
          "type": "bool"
        }
      ],
      "payable": false,
      "stateMutability": "view",
      "type": "function"
    },
    {
      "constant": true,
      "inputs": [
        {
          "name": "id",
          "type": "uint256"
        }
      ],
      "name": "getTollBoothAdditional",
      "outputs": [
        {
          "name": "",
          "type": "bool"
        },
        {
          "name": "",
          "type": "uint8"
        },
        {
          "name": "",
          "type": "uint8"
        }
      ],
      "payable": false,
      "stateMutability": "view",
      "type": "function"
    }
  ],
  "bytecode": "0x608060405234801561001057600080fd5b50336000806101000a81548173ffffffffffffffffffffffffffffffffffffffff021916908373ffffffffffffffffffffffffffffffffffffffff1602179055506000809054906101000a900473ffffffffffffffffffffffffffffffffffffffff1673ffffffffffffffffffffffffffffffffffffffff16600073ffffffffffffffffffffffffffffffffffffffff167f8be0079c531659141344cd1fd0a4f28419497f9722a3daafe3b4186f6b6457e060405160405180910390a3600a600060146101000a81548160ff021916908360ff1602179055506000600381905550611712806101006000396000f3006080604052600436106100a4576000357c0100000000000000000000000000000000000000000000000000000000900463ffffffff1680630a01980b146100a9578063117b7b13146100d45780635956a9dd14610133578063715018a6146103a95780638da5cb5b146103c05780638f32d59b14610417578063acaa378514610446578063af30d128146105e7578063eaee6cf314610646578063f2fde38b146108bc575b600080fd5b3480156100b557600080fd5b506100be6108ff565b6040518082815260200191505060405180910390f35b3480156100e057600080fd5b506100ff60048036038101908080359060200190929190505050610905565b60405180841515151581526020018360ff1660ff1681526020018260ff1660ff168152602001935050505060405180910390f35b34801561013f57600080fd5b5061015e600480360381019080803590602001909291905050506109b5565b604051808060200180602001806020018a815260200189815260200180602001806020018881526020018715151515815260200186810386528f818151815260200191508051906020019080838360005b838110156101ca5780820151818401526020810190506101af565b50505050905090810190601f1680156101f75780820380516001836020036101000a031916815260200191505b5086810385528e818151815260200191508051906020019080838360005b83811015610230578082015181840152602081019050610215565b50505050905090810190601f16801561025d5780820380516001836020036101000a031916815260200191505b5086810384528d818151815260200191508051906020019080838360005b8381101561029657808201518184015260208101905061027b565b50505050905090810190601f1680156102c35780820380516001836020036101000a031916815260200191505b5086810383528a818151815260200191508051906020019080838360005b838110156102fc5780820151818401526020810190506102e1565b50505050905090810190601f1680156103295780820380516001836020036101000a031916815260200191505b50868103825289818151815260200191508051906020019080838360005b83811015610362578082015181840152602081019050610347565b50505050905090810190601f16801561038f5780820380516001836020036101000a031916815260200191505b509e50505050505050505050505050505060405180910390f35b3480156103b557600080fd5b506103be610dbd565b005b3480156103cc57600080fd5b506103d5610e8f565b604051808273ffffffffffffffffffffffffffffffffffffffff1673ffffffffffffffffffffffffffffffffffffffff16815260200191505060405180910390f35b34801561042357600080fd5b5061042c610eb8565b604051808215151515815260200191505060405180910390f35b34801561045257600080fd5b506105e5600480360381019080803590602001908201803590602001908080601f0160208091040260200160405190810160405280939291908181526020018383808284378201915050505050509192919290803590602001908201803590602001908080601f0160208091040260200160405190810160405280939291908181526020018383808284378201915050505050509192919290803590602001908201803590602001908080601f016020809104026020016040519081016040528093929190818152602001838380828437820191505050505050919291929080359060200190929190803590602001908201803590602001908080601f0160208091040260200160405190810160405280939291908181526020018383808284378201915050505050509192919290803590602001908201803590602001908080601f016020809104026020016040519081016040528093929190818152602001838380828437820191505050505050919291929080359060200190929190803515159060200190929190505050610f0f565b005b3480156105f357600080fd5b506106126004803603810190808035906020019092919050505061110b565b60405180841515151581526020018360ff1660ff1681526020018260ff1660ff168152602001935050505060405180910390f35b34801561065257600080fd5b506106716004803603810190808035906020019092919050505061115c565b604051808060200180602001806020018a815260200189815260200180602001806020018881526020018715151515815260200186810386528f818151815260200191508051906020019080838360005b838110156106dd5780820151818401526020810190506106c2565b50505050905090810190601f16801561070a5780820380516001836020036101000a031916815260200191505b5086810385528e818151815260200191508051906020019080838360005b83811015610743578082015181840152602081019050610728565b50505050905090810190601f1680156107705780820380516001836020036101000a031916815260200191505b5086810384528d818151815260200191508051906020019080838360005b838110156107a957808201518184015260208101905061078e565b50505050905090810190601f1680156107d65780820380516001836020036101000a031916815260200191505b5086810383528a818151815260200191508051906020019080838360005b8381101561080f5780820151818401526020810190506107f4565b50505050905090810190601f16801561083c5780820380516001836020036101000a031916815260200191505b50868103825289818151815260200191508051906020019080838360005b8381101561087557808201518184015260208101905061085a565b50505050905090810190601f1680156108a25780820380516001836020036101000a031916815260200191505b509e50505050505050505050505050505060405180910390f35b3480156108c857600080fd5b506108fd600480360381019080803573ffffffffffffffffffffffffffffffffffffffff1690602001909291905050506114af565b005b60035481565b60008060006109126115c8565b6003548510151561092257600080fd5b60026000868152602001908152602001600020606060405190810160405290816000820160009054906101000a900460ff161515151581526020016000820160019054906101000a900460ff1660ff1660ff1681526020016000820160029054906101000a900460ff1660ff1660ff16815250509050806000015181602001518260400151935093509350509193909250565b60608060606000806060806000806109cb6115f2565b6003548b1015156109db57600080fd5b600160008c81526020019081526020016000206101206040519081016040529081600082018054600181600116156101000203166002900480601f016020809104026020016040519081016040528092919081815260200182805460018160011615610100020316600290048015610a945780601f10610a6957610100808354040283529160200191610a94565b820191906000526020600020905b815481529060010190602001808311610a7757829003601f168201915b50505050508152602001600182018054600181600116156101000203166002900480601f016020809104026020016040519081016040528092919081815260200182805460018160011615610100020316600290048015610b365780601f10610b0b57610100808354040283529160200191610b36565b820191906000526020600020905b815481529060010190602001808311610b1957829003601f168201915b50505050508152602001600282018054600181600116156101000203166002900480601f016020809104026020016040519081016040528092919081815260200182805460018160011615610100020316600290048015610bd85780601f10610bad57610100808354040283529160200191610bd8565b820191906000526020600020905b815481529060010190602001808311610bbb57829003601f168201915b505050505081526020016003820154815260200160048201548152602001600582018054600181600116156101000203166002900480601f016020809104026020016040519081016040528092919081815260200182805460018160011615610100020316600290048015610c8e5780601f10610c6357610100808354040283529160200191610c8e565b820191906000526020600020905b815481529060010190602001808311610c7157829003601f168201915b50505050508152602001600682018054600181600116156101000203166002900480601f016020809104026020016040519081016040528092919081815260200182805460018160011615610100020316600290048015610d305780601f10610d0557610100808354040283529160200191610d30565b820191906000526020600020905b815481529060010190602001808311610d1357829003601f168201915b50505050508152602001600782015481526020016008820160009054906101000a900460ff1615151515815250509050806000015181602001518260400151836060015184608001518560a001518660c001518760e00151886101000151889850879750869650839350829250995099509950995099509950995099509950509193959799909294969850565b610dc5610eb8565b1515610dd057600080fd5b600073ffffffffffffffffffffffffffffffffffffffff166000809054906101000a900473ffffffffffffffffffffffffffffffffffffffff1673ffffffffffffffffffffffffffffffffffffffff167f8be0079c531659141344cd1fd0a4f28419497f9722a3daafe3b4186f6b6457e060405160405180910390a360008060006101000a81548173ffffffffffffffffffffffffffffffffffffffff021916908373ffffffffffffffffffffffffffffffffffffffff160217905550565b60008060009054906101000a900473ffffffffffffffffffffffffffffffffffffffff16905090565b60008060009054906101000a900473ffffffffffffffffffffffffffffffffffffffff1673ffffffffffffffffffffffffffffffffffffffff163373ffffffffffffffffffffffffffffffffffffffff1614905090565b610f17610eb8565b1515610f2257600080fd5b61012060405190810160405280898152602001888152602001878152602001868152602001600081526020018581526020018481526020018381526020018215158152506001600060035481526020019081526020016000206000820151816000019080519060200190610f97929190611641565b506020820151816001019080519060200190610fb4929190611641565b506040820151816002019080519060200190610fd1929190611641565b50606082015181600301556080820151816004015560a0820151816005019080519060200190611002929190611641565b5060c082015181600601908051906020019061101f929190611641565b5060e082015181600701556101008201518160080160006101000a81548160ff021916908315150217905550905050606060405190810160405280600015158152602001600060ff168152602001600060ff1681525060026000600354815260200190815260200160002060008201518160000160006101000a81548160ff02191690831515021790555060208201518160000160016101000a81548160ff021916908360ff16021790555060408201518160000160026101000a81548160ff021916908360ff1602179055509050506003600081548092919060010191905055505050505050505050565b60026020528060005260406000206000915090508060000160009054906101000a900460ff16908060000160019054906101000a900460ff16908060000160029054906101000a900460ff16905083565b6001602052806000526040600020600091509050806000018054600181600116156101000203166002900480601f0160208091040260200160405190810160405280929190818152602001828054600181600116156101000203166002900480156112085780601f106111dd57610100808354040283529160200191611208565b820191906000526020600020905b8154815290600101906020018083116111eb57829003601f168201915b505050505090806001018054600181600116156101000203166002900480601f0160208091040260200160405190810160405280929190818152602001828054600181600116156101000203166002900480156112a65780601f1061127b576101008083540402835291602001916112a6565b820191906000526020600020905b81548152906001019060200180831161128957829003601f168201915b505050505090806002018054600181600116156101000203166002900480601f0160208091040260200160405190810160405280929190818152602001828054600181600116156101000203166002900480156113445780601f1061131957610100808354040283529160200191611344565b820191906000526020600020905b81548152906001019060200180831161132757829003601f168201915b505050505090806003015490806004015490806005018054600181600116156101000203166002900480601f0160208091040260200160405190810160405280929190818152602001828054600181600116156101000203166002900480156113ee5780601f106113c3576101008083540402835291602001916113ee565b820191906000526020600020905b8154815290600101906020018083116113d157829003601f168201915b505050505090806006018054600181600116156101000203166002900480601f01602080910402602001604051908101604052809291908181526020018280546001816001161561010002031660029004801561148c5780601f106114615761010080835404028352916020019161148c565b820191906000526020600020905b81548152906001019060200180831161146f57829003601f168201915b5050505050908060070154908060080160009054906101000a900460ff16905089565b6114b7610eb8565b15156114c257600080fd5b6114cb816114ce565b50565b600073ffffffffffffffffffffffffffffffffffffffff168173ffffffffffffffffffffffffffffffffffffffff161415151561150a57600080fd5b8073ffffffffffffffffffffffffffffffffffffffff166000809054906101000a900473ffffffffffffffffffffffffffffffffffffffff1673ffffffffffffffffffffffffffffffffffffffff167f8be0079c531659141344cd1fd0a4f28419497f9722a3daafe3b4186f6b6457e060405160405180910390a3806000806101000a81548173ffffffffffffffffffffffffffffffffffffffff021916908373ffffffffffffffffffffffffffffffffffffffff16021790555050565b606060405190810160405280600015158152602001600060ff168152602001600060ff1681525090565b6101206040519081016040528060608152602001606081526020016060815260200160008152602001600081526020016060815260200160608152602001600081526020016000151581525090565b828054600181600116156101000203166002900490600052602060002090601f016020900481019282601f1061168257805160ff19168380011785556116b0565b828001600101855582156116b0579182015b828111156116af578251825591602001919060010190611694565b5b5090506116bd91906116c1565b5090565b6116e391905b808211156116df5760008160009055506001016116c7565b5090565b905600a165627a7a72305820076caebbb8be4040cfdcaa8b6c1006b224eace8fed517e1d6b4cf503d22d6b0a0029",
  "source": "pragma solidity ^0.4.23;\r\n\r\nimport \"./SafeMath.sol\";\r\nimport \"./Ownable.sol\";\r\n\r\n//\r\ncontract TollBoothsManager is Ownable {\r\n\tusing SafeMath for uint;\r\n\r\n    uint8 private _maxTicket;\r\n\r\n    struct TicketTB {\r\n        bytes32 id;\r\n        bytes32 tollBoothId;\r\n        string name;\r\n        uint256 price;\r\n        string vehicles;\r\n        uint256 version;\r\n        address paymentAddress;\r\n    }\r\n    struct RepairTB {\r\n        string description;\r\n        uint256 time;\r\n        uint256 costs;\r\n    }\r\n    \r\n    struct TollBooth {\r\n        string name;\r\n        string location;\r\n        string description;\r\n        uint256 investment;\r\n        uint256 totalRevenue;\r\n        string startTime;\r\n        string operatorUnit;\r\n        uint256 taxCode;\r\n        bool activate;\r\n    }\r\n    struct TollBoothAdditional {\r\n        bool completeTarget;\r\n        uint8 numTickets;\r\n        uint8 numAdditionalRepairs;\r\n        mapping(uint8 => TicketTB) tickets;\r\n        mapping(uint8 => RepairTB) additionalRepairs;\r\n    }\r\n    //\r\n    mapping(uint => TollBooth) public tollBooths;\r\n    mapping(uint => TollBoothAdditional) public tollBoothsAdditional;\r\n    uint public totalTollBooths;\r\n    //\r\n    event CreateTicket(uint indexed tollBoothId, bytes32 indexed ticketId, string name, uint256 price, string vehicles, uint64 version, address paymentAddress, uint256 time);\r\n    event TicketUpdate(uint indexed tollBoothId, bytes32 indexed ticketId, string name, uint256 price, string vehicles, uint64 version, address paymentAddress, uint256 time);\r\n    event BuyTicket(bytes32 indexed tollBoothId );\r\n    //\r\n    constructor () public {\r\n        _maxTicket = 10;\r\n        totalTollBooths = 0;\r\n    }\r\n    //@\r\n    function createNewTollBooth(\r\n        string _name, \r\n        string _location,\r\n        string _description,\r\n        uint256 _investment,\r\n        string _startTime,\r\n        string _operatorUnit,\r\n        uint256 _taxCode,\r\n        bool _activate) public onlyOwner {\r\n            tollBooths[totalTollBooths] = TollBooth({\r\n                name: _name,\r\n                location: _location,\r\n                description: _description,\r\n                investment: _investment,\r\n                totalRevenue: 0,\r\n                startTime: _startTime,\r\n                operatorUnit: _operatorUnit,\r\n                taxCode: _taxCode,\r\n                activate: _activate\r\n            });\r\n            tollBoothsAdditional[totalTollBooths] = TollBoothAdditional({\r\n                completeTarget: false,\r\n                numTickets: 0,\r\n                numAdditionalRepairs: 0\r\n            });\r\n            totalTollBooths++;\r\n        }\r\n    //@\r\n    function getTollBoothDetails(uint id) public view returns(string, string, string, uint256, uint256, string, string, uint256, bool) {\r\n\t\trequire(id < totalTollBooths);\r\n        TollBooth memory tbData = tollBooths[id];\r\n        return (tbData.name, tbData.location, tbData.description, tbData.investment, tbData.totalRevenue, tbData.startTime, tbData.operatorUnit, tbData.taxCode, tbData.activate);\r\n\t}\r\n    //@\r\n    function getTollBoothAdditional(uint id) public view returns(bool, uint8, uint8) {\r\n\t\trequire(id < totalTollBooths);\r\n        TollBoothAdditional memory tbDataAdd = tollBoothsAdditional[id];\r\n        return (tbDataAdd.completeTarget, tbDataAdd.numTickets, tbDataAdd.numAdditionalRepairs);\r\n    }\r\n    //@\r\n    /*function getTicketDetails(bytes32 _tbid, uint8 _index) public view returns(bytes32, bytes32, string, uint256, string, uint256, address) {\r\n        require(indexOf(tollBoothsId, _tbid));\r\n        TollBooth memory tbData = tollBooths[_tbid];\r\n        if(tbData.numTickets <= 0)revert();\r\n        TicketTB memory ticket = tollBooths[_tbid].tickets[_index];\r\n        return(ticket.id, ticket.tollBoothId, ticket.name, ticket.price, ticket.vehicles, ticket.version, ticket.paymentAddress);\r\n    }\r\n    //@\r\n    function getTicketDetailsFromTbid(bytes32 _tbid, uint8 _index) public view returns(bytes32, string, uint256, string, uint256, address) {\r\n        require(indexOf(tollBoothsId, _tbid));\r\n        TollBooth memory tbData = tollBooths[_tbid];\r\n        if(tbData.numTickets <= 0)revert();\r\n        TicketTB memory ticket = tollBooths[_tbid].tickets[_index];\r\n        return(ticket.id, ticket.name, ticket.price, ticket.vehicles, ticket.version, ticket.paymentAddress);\r\n    }\r\n\r\n    //@\r\n    function createTicketTB(bytes32 _tbid, string _name, uint256 _price, string _vehicles, address _paymentAddress) public onlyOwner {\r\n            //_id = _validateId(_id);\r\n            require(indexOf(tollBoothsId, _tbid));\r\n            require(tollBooths[_tbid].numTickets < _maxTicket);\r\n            bytes32 _id = keccak256(now);\r\n            tollBooths[_tbid].tickets[tollBooths[_tbid].numTickets] = TicketTB({\r\n                id: _id,\r\n                tollBoothId: _tbid,\r\n                name: _name,\r\n                price: _price,\r\n                vehicles: _vehicles,\r\n                version: 1,\r\n                paymentAddress: _paymentAddress\r\n            });\r\n            tollBooths[_tbid].numTickets++;\r\n            CreateTicket(_tbid, _id, _name, _price, _vehicles, 1, _paymentAddress, now);\r\n    }*/\r\n\r\n\r\n \r\n    \r\n    //@\r\n    /*function _validateId(bytes32 _id) internal pure returns(bytes32) {\r\n        return _id;\r\n    }\r\n    //@\r\n    function indexOf(bytes32[] memory self, bytes32 value) public view returns (bool){\r\n        for (uint i = 0; i < self.length; i++)if (self[i] == value) return true;\r\n        return false;\r\n    }*/\r\n}\r\n",
  "sourcePath": "C:\\wamp64\\www\\Working\\Blockchain\\Tron\\TollBoothsManager\\contracts\\TollBoothsManager.sol",
  "compiler": {
    "name": "solc",
    "version": "0.4.24-develop.2018.8.28+commit.3ba0cdec.mod.Emscripten.clang"
  },
  "schemaVersion": "2.0.1",
  "updatedAt": "2019-01-08T17:17:37.540Z"
}