{
  "contractName": "TollBoothsManager",
  "abi": [
    {
      "constant": true,
      "inputs": [],
      "name": "currentBuyTickets",
      "outputs": [
        {
          "name": "",
          "type": "uint256"
        }
      ],
      "payable": false,
      "stateMutability": "view",
      "type": "function"
    },
    {
      "constant": true,
      "inputs": [],
      "name": "totalTollBooths",
      "outputs": [
        {
          "name": "",
          "type": "uint256"
        }
      ],
      "payable": false,
      "stateMutability": "view",
      "type": "function"
    },
    {
      "constant": true,
      "inputs": [
        {
          "name": "",
          "type": "uint256"
        }
      ],
      "name": "buyTickets",
      "outputs": [
        {
          "name": "buyer",
          "type": "address"
        },
        {
          "name": "paymentAddress",
          "type": "address"
        },
        {
          "name": "ticketId",
          "type": "uint8"
        },
        {
          "name": "tollBoothId",
          "type": "uint256"
        },
        {
          "name": "price",
          "type": "uint256"
        },
        {
          "name": "clientTime",
          "type": "uint256"
        },
        {
          "name": "time",
          "type": "uint256"
        }
      ],
      "payable": false,
      "stateMutability": "view",
      "type": "function"
    },
    {
      "constant": false,
      "inputs": [],
      "name": "renounceOwnership",
      "outputs": [],
      "payable": false,
      "stateMutability": "nonpayable",
      "type": "function"
    },
    {
      "constant": true,
      "inputs": [],
      "name": "owner",
      "outputs": [
        {
          "name": "",
          "type": "address"
        }
      ],
      "payable": false,
      "stateMutability": "view",
      "type": "function"
    },
    {
      "constant": true,
      "inputs": [],
      "name": "isOwner",
      "outputs": [
        {
          "name": "",
          "type": "bool"
        }
      ],
      "payable": false,
      "stateMutability": "view",
      "type": "function"
    },
    {
      "constant": true,
      "inputs": [
        {
          "name": "",
          "type": "uint256"
        }
      ],
      "name": "tollBoothsAdditional",
      "outputs": [
        {
          "name": "numTickets",
          "type": "uint8"
        },
        {
          "name": "numAdditionalRepairs",
          "type": "uint256"
        },
        {
          "name": "taxCode",
          "type": "uint256"
        },
        {
          "name": "completeTarget",
          "type": "bool"
        }
      ],
      "payable": false,
      "stateMutability": "view",
      "type": "function"
    },
    {
      "constant": true,
      "inputs": [],
      "name": "maxTicket",
      "outputs": [
        {
          "name": "",
          "type": "uint8"
        }
      ],
      "payable": false,
      "stateMutability": "view",
      "type": "function"
    },
    {
      "constant": true,
      "inputs": [
        {
          "name": "",
          "type": "uint256"
        }
      ],
      "name": "tollBooths",
      "outputs": [
        {
          "name": "name",
          "type": "string"
        },
        {
          "name": "location",
          "type": "string"
        },
        {
          "name": "description",
          "type": "string"
        },
        {
          "name": "investment",
          "type": "uint256"
        },
        {
          "name": "totalInvestment",
          "type": "uint256"
        },
        {
          "name": "totalRevenue",
          "type": "uint256"
        },
        {
          "name": "startTime",
          "type": "string"
        },
        {
          "name": "operatorUnit",
          "type": "string"
        },
        {
          "name": "activate",
          "type": "bool"
        }
      ],
      "payable": false,
      "stateMutability": "view",
      "type": "function"
    },
    {
      "constant": false,
      "inputs": [
        {
          "name": "newOwner",
          "type": "address"
        }
      ],
      "name": "transferOwnership",
      "outputs": [],
      "payable": false,
      "stateMutability": "nonpayable",
      "type": "function"
    },
    {
      "inputs": [],
      "payable": false,
      "stateMutability": "nonpayable",
      "type": "constructor"
    },
    {
      "anonymous": false,
      "inputs": [
        {
          "indexed": true,
          "name": "tollBoothId",
          "type": "uint256"
        },
        {
          "indexed": false,
          "name": "ticketId",
          "type": "uint8"
        },
        {
          "indexed": false,
          "name": "name",
          "type": "string"
        },
        {
          "indexed": false,
          "name": "vehicles",
          "type": "string"
        },
        {
          "indexed": false,
          "name": "price",
          "type": "uint256"
        },
        {
          "indexed": false,
          "name": "version",
          "type": "uint256"
        },
        {
          "indexed": false,
          "name": "paymentAddress",
          "type": "address"
        },
        {
          "indexed": false,
          "name": "time",
          "type": "uint256"
        }
      ],
      "name": "CreateTicket",
      "type": "event"
    },
    {
      "anonymous": false,
      "inputs": [
        {
          "indexed": true,
          "name": "tollBoothId",
          "type": "uint256"
        },
        {
          "indexed": false,
          "name": "ticketId",
          "type": "uint8"
        },
        {
          "indexed": false,
          "name": "name",
          "type": "string"
        },
        {
          "indexed": false,
          "name": "vehicles",
          "type": "string"
        },
        {
          "indexed": false,
          "name": "price",
          "type": "uint256"
        },
        {
          "indexed": false,
          "name": "version",
          "type": "uint256"
        },
        {
          "indexed": false,
          "name": "paymentAddress",
          "type": "address"
        },
        {
          "indexed": false,
          "name": "time",
          "type": "uint256"
        }
      ],
      "name": "TicketUpdate",
      "type": "event"
    },
    {
      "anonymous": false,
      "inputs": [
        {
          "indexed": true,
          "name": "buyer",
          "type": "address"
        },
        {
          "indexed": true,
          "name": "tollBoothId",
          "type": "uint256"
        },
        {
          "indexed": false,
          "name": "ticketId",
          "type": "uint8"
        },
        {
          "indexed": false,
          "name": "price",
          "type": "uint256"
        },
        {
          "indexed": false,
          "name": "paymentAddress",
          "type": "address"
        },
        {
          "indexed": false,
          "name": "time",
          "type": "uint256"
        }
      ],
      "name": "userBuyTicket",
      "type": "event"
    },
    {
      "anonymous": false,
      "inputs": [
        {
          "indexed": true,
          "name": "previousOwner",
          "type": "address"
        },
        {
          "indexed": true,
          "name": "newOwner",
          "type": "address"
        }
      ],
      "name": "OwnershipTransferred",
      "type": "event"
    },
    {
      "constant": false,
      "inputs": [
        {
          "name": "_name",
          "type": "string"
        },
        {
          "name": "_location",
          "type": "string"
        },
        {
          "name": "_description",
          "type": "string"
        },
        {
          "name": "_investment",
          "type": "uint256"
        },
        {
          "name": "_startTime",
          "type": "string"
        },
        {
          "name": "_operatorUnit",
          "type": "string"
        },
        {
          "name": "_taxCode",
          "type": "uint256"
        },
        {
          "name": "_activate",
          "type": "bool"
        }
      ],
      "name": "createNewTollBooth",
      "outputs": [],
      "payable": false,
      "stateMutability": "nonpayable",
      "type": "function"
    },
    {
      "constant": false,
      "inputs": [
        {
          "name": "_id",
          "type": "uint256"
        },
        {
          "name": "_name",
          "type": "string"
        },
        {
          "name": "_location",
          "type": "string"
        },
        {
          "name": "_description",
          "type": "string"
        },
        {
          "name": "_investment",
          "type": "uint256"
        },
        {
          "name": "_startTime",
          "type": "string"
        },
        {
          "name": "_operatorUnit",
          "type": "string"
        },
        {
          "name": "_taxCode",
          "type": "uint256"
        },
        {
          "name": "_activate",
          "type": "bool"
        }
      ],
      "name": "updateTollBooth",
      "outputs": [],
      "payable": false,
      "stateMutability": "nonpayable",
      "type": "function"
    },
    {
      "constant": false,
      "inputs": [
        {
          "name": "_name",
          "type": "string"
        },
        {
          "name": "_vehicles",
          "type": "string"
        },
        {
          "name": "_price",
          "type": "uint256"
        },
        {
          "name": "_tbid",
          "type": "uint256"
        },
        {
          "name": "_paymentAddress",
          "type": "address"
        }
      ],
      "name": "createTicketTB",
      "outputs": [],
      "payable": false,
      "stateMutability": "nonpayable",
      "type": "function"
    },
    {
      "constant": false,
      "inputs": [
        {
          "name": "_name",
          "type": "string"
        },
        {
          "name": "_vehicles",
          "type": "string"
        },
        {
          "name": "_price",
          "type": "uint256"
        },
        {
          "name": "_tbid",
          "type": "uint256"
        },
        {
          "name": "_id",
          "type": "uint8"
        },
        {
          "name": "_paymentAddress",
          "type": "address"
        }
      ],
      "name": "updateTicketTB",
      "outputs": [],
      "payable": false,
      "stateMutability": "nonpayable",
      "type": "function"
    },
    {
      "constant": true,
      "inputs": [
        {
          "name": "_tbid",
          "type": "uint256"
        },
        {
          "name": "_id",
          "type": "uint8"
        }
      ],
      "name": "getTicketDetails",
      "outputs": [
        {
          "name": "",
          "type": "string"
        },
        {
          "name": "",
          "type": "string"
        },
        {
          "name": "",
          "type": "uint256"
        },
        {
          "name": "",
          "type": "uint256"
        },
        {
          "name": "",
          "type": "address"
        }
      ],
      "payable": false,
      "stateMutability": "view",
      "type": "function"
    },
    {
      "constant": false,
      "inputs": [
        {
          "name": "_time",
          "type": "string"
        },
        {
          "name": "_description",
          "type": "string"
        },
        {
          "name": "_costs",
          "type": "uint256"
        },
        {
          "name": "_tbid",
          "type": "uint256"
        }
      ],
      "name": "addRepairTB",
      "outputs": [],
      "payable": false,
      "stateMutability": "nonpayable",
      "type": "function"
    },
    {
      "constant": false,
      "inputs": [
        {
          "name": "_time",
          "type": "string"
        },
        {
          "name": "_description",
          "type": "string"
        },
        {
          "name": "_costs",
          "type": "uint256"
        },
        {
          "name": "_tbid",
          "type": "uint256"
        },
        {
          "name": "_id",
          "type": "uint256"
        }
      ],
      "name": "updateRepairTB",
      "outputs": [],
      "payable": false,
      "stateMutability": "nonpayable",
      "type": "function"
    },
    {
      "constant": true,
      "inputs": [
        {
          "name": "_tbid",
          "type": "uint256"
        },
        {
          "name": "_id",
          "type": "uint256"
        }
      ],
      "name": "getRepairDetails",
      "outputs": [
        {
          "name": "",
          "type": "string"
        },
        {
          "name": "",
          "type": "string"
        },
        {
          "name": "",
          "type": "uint256"
        }
      ],
      "payable": false,
      "stateMutability": "view",
      "type": "function"
    },
    {
      "constant": false,
      "inputs": [
        {
          "name": "_tbid",
          "type": "uint256"
        },
        {
          "name": "_id",
          "type": "uint8"
        },
        {
          "name": "_clientTime",
          "type": "uint256"
        }
      ],
      "name": "buyTicketTB",
      "outputs": [],
      "payable": true,
      "stateMutability": "payable",
      "type": "function"
    },
    {
      "constant": true,
      "inputs": [
        {
          "name": "_tbid",
          "type": "uint256"
        },
        {
          "name": "_id",
          "type": "uint8"
        },
        {
          "name": "_clientTime",
          "type": "uint256"
        },
        {
          "name": "_maxQuery",
          "type": "uint256"
        }
      ],
      "name": "getBuyTicketTB",
      "outputs": [
        {
          "name": "",
          "type": "bool"
        },
        {
          "name": "",
          "type": "uint256"
        }
      ],
      "payable": false,
      "stateMutability": "view",
      "type": "function"
    }
  ],
  "bytecode": "0x608060405234801561001057600080fd5b50336000806101000a81548173ffffffffffffffffffffffffffffffffffffffff021916908373ffffffffffffffffffffffffffffffffffffffff1602179055506000809054906101000a900473ffffffffffffffffffffffffffffffffffffffff1673ffffffffffffffffffffffffffffffffffffffff16600073ffffffffffffffffffffffffffffffffffffffff167f8be0079c531659141344cd1fd0a4f28419497f9722a3daafe3b4186f6b6457e060405160405180910390a3600a600460006101000a81548160ff021916908360ff1602179055506000600381905550612d9e806101006000396000f300608060405260043610610111576000357c0100000000000000000000000000000000000000000000000000000000900463ffffffff168062d20678146101165780630a01980b146101415780630d4197211461016c5780630db2eb4d146101a35780632f3666371461034e5780633748fec614610417578063638592721461050757806367d7769a146105ea5780636bb921ea14610657578063715018a61461077a578063852aedec146107915780638da5cb5b146108f15780638f32d59b14610948578063acaa378514610977578063af30d12814610b18578063b1bb585514610b78578063b842927714610ba9578063d083f56a14610c6c578063eaee6cf314610d39578063f2fde38b14610faf575b600080fd5b34801561012257600080fd5b5061012b610ff2565b6040518082815260200191505060405180910390f35b34801561014d57600080fd5b50610156610ff8565b6040518082815260200191505060405180910390f35b6101a160048036038101908080359060200190929190803560ff16906020019092919080359060200190929190505050610ffe565b005b3480156101af57600080fd5b5061034c60048036038101908080359060200190929190803590602001908201803590602001908080601f0160208091040260200160405190810160405280939291908181526020018383808284378201915050505050509192919290803590602001908201803590602001908080601f0160208091040260200160405190810160405280939291908181526020018383808284378201915050505050509192919290803590602001908201803590602001908080601f016020809104026020016040519081016040528093929190818152602001838380828437820191505050505050919291929080359060200190929190803590602001908201803590602001908080601f0160208091040260200160405190810160405280939291908181526020018383808284378201915050505050509192919290803590602001908201803590602001908080601f016020809104026020016040519081016040528093929190818152602001838380828437820191505050505050919291929080359060200190929190803515159060200190929190505050611294565b005b34801561035a57600080fd5b5061037960048036038101908080359060200190929190505050611406565b604051808873ffffffffffffffffffffffffffffffffffffffff1673ffffffffffffffffffffffffffffffffffffffff1681526020018773ffffffffffffffffffffffffffffffffffffffff1673ffffffffffffffffffffffffffffffffffffffff1681526020018660ff1660ff16815260200185815260200184815260200183815260200182815260200197505050505050505060405180910390f35b34801561042357600080fd5b50610505600480360381019080803590602001908201803590602001908080601f0160208091040260200160405190810160405280939291908181526020018383808284378201915050505050509192919290803590602001908201803590602001908080601f01602080910402602001604051908101604052809392919081815260200183838082843782019150505050505091929192908035906020019092919080359060200190929190803560ff169060200190929190803573ffffffffffffffffffffffffffffffffffffffff169060200190929190505050611495565b005b34801561051357600080fd5b506105e8600480360381019080803590602001908201803590602001908080601f0160208091040260200160405190810160405280939291908181526020018383808284378201915050505050509192919290803590602001908201803590602001908080601f01602080910402602001604051908101604052809392919081815260200183838082843782019150505050505091929192908035906020019092919080359060200190929190803573ffffffffffffffffffffffffffffffffffffffff1690602001909291905050506117ff565b005b3480156105f657600080fd5b5061063660048036038101908080359060200190929190803560ff1690602001909291908035906020019092919080359060200190929190505050611b57565b60405180831515151581526020018281526020019250505060405180910390f35b34801561066357600080fd5b5061068c6004803603810190808035906020019092919080359060200190929190505050611ce5565b604051808060200180602001848152602001838103835286818151815260200191508051906020019080838360005b838110156106d65780820151818401526020810190506106bb565b50505050905090810190601f1680156107035780820380516001836020036101000a031916815260200191505b50838103825285818151815260200191508051906020019080838360005b8381101561073c578082015181840152602081019050610721565b50505050905090810190601f1680156107695780820380516001836020036101000a031916815260200191505b509550505050505060405180910390f35b34801561078657600080fd5b5061078f611e9b565b005b34801561079d57600080fd5b506107c960048036038101908080359060200190929190803560ff169060200190929190505050611f6d565b6040518080602001806020018681526020018581526020018473ffffffffffffffffffffffffffffffffffffffff1673ffffffffffffffffffffffffffffffffffffffff168152602001838103835288818151815260200191508051906020019080838360005b8381101561084b578082015181840152602081019050610830565b50505050905090810190601f1680156108785780820380516001836020036101000a031916815260200191505b50838103825287818151815260200191508051906020019080838360005b838110156108b1578082015181840152602081019050610896565b50505050905090810190601f1680156108de5780820380516001836020036101000a031916815260200191505b5097505050505050505060405180910390f35b3480156108fd57600080fd5b50610906612170565b604051808273ffffffffffffffffffffffffffffffffffffffff1673ffffffffffffffffffffffffffffffffffffffff16815260200191505060405180910390f35b34801561095457600080fd5b5061095d612199565b604051808215151515815260200191505060405180910390f35b34801561098357600080fd5b50610b16600480360381019080803590602001908201803590602001908080601f0160208091040260200160405190810160405280939291908181526020018383808284378201915050505050509192919290803590602001908201803590602001908080601f0160208091040260200160405190810160405280939291908181526020018383808284378201915050505050509192919290803590602001908201803590602001908080601f016020809104026020016040519081016040528093929190818152602001838380828437820191505050505050919291929080359060200190929190803590602001908201803590602001908080601f0160208091040260200160405190810160405280939291908181526020018383808284378201915050505050509192919290803590602001908201803590602001908080601f0160208091040260200160405190810160405280939291908181526020018383808284378201915050505050509192919290803590602001909291908035151590602001909291905050506121f0565b005b348015610b2457600080fd5b50610b43600480360381019080803590602001909291905050506123e2565b604051808560ff1660ff1681526020018481526020018381526020018215151515815260200194505050505060405180910390f35b348015610b8457600080fd5b50610b8d61242c565b604051808260ff1660ff16815260200191505060405180910390f35b348015610bb557600080fd5b50610c6a600480360381019080803590602001908201803590602001908080601f0160208091040260200160405190810160405280939291908181526020018383808284378201915050505050509192919290803590602001908201803590602001908080601f0160208091040260200160405190810160405280939291908181526020018383808284378201915050505050509192919290803590602001909291908035906020019092919050505061243f565b005b348015610c7857600080fd5b50610d37600480360381019080803590602001908201803590602001908080601f0160208091040260200160405190810160405280939291908181526020018383808284378201915050505050509192919290803590602001908201803590602001908080601f016020809104026020016040519081016040528093929190818152602001838380828437820191505050505050919291929080359060200190929190803590602001909291908035906020019092919050505061253d565b005b348015610d4557600080fd5b50610d6460048036038101908080359060200190929190505050612641565b604051808060200180602001806020018a815260200189815260200188815260200180602001806020018715151515815260200186810386528f818151815260200191508051906020019080838360005b83811015610dd0578082015181840152602081019050610db5565b50505050905090810190601f168015610dfd5780820380516001836020036101000a031916815260200191505b5086810385528e818151815260200191508051906020019080838360005b83811015610e36578082015181840152602081019050610e1b565b50505050905090810190601f168015610e635780820380516001836020036101000a031916815260200191505b5086810384528d818151815260200191508051906020019080838360005b83811015610e9c578082015181840152602081019050610e81565b50505050905090810190601f168015610ec95780820380516001836020036101000a031916815260200191505b50868103835289818151815260200191508051906020019080838360005b83811015610f02578082015181840152602081019050610ee7565b50505050905090810190601f168015610f2f5780820380516001836020036101000a031916815260200191505b50868103825288818151815260200191508051906020019080838360005b83811015610f68578082015181840152602081019050610f4d565b50505050905090810190601f168015610f955780820380516001836020036101000a031916815260200191505b509e50505050505050505050505050505060405180910390f35b348015610fbb57600080fd5b50610ff0600480360381019080803573ffffffffffffffffffffffffffffffffffffffff169060200190929190505050612994565b005b60065481565b60035481565b6000806003548510151561101157600080fd5b6002600086815260200190815260200160002060000160009054906101000a900460ff1660ff168460ff1610151561104857600080fd5b6002600086815260200190815260200160002060040160008560ff1660ff16815260200190815260200160002060020154915081341015151561108a57600080fd5b6002600086815260200190815260200160002060040160008560ff1660ff16815260200190815260200160002060050160009054906101000a900473ffffffffffffffffffffffffffffffffffffffff1690506111063460016000888152602001908152602001600020600501546129b390919063ffffffff16565b600160008781526020019081526020016000206005018190555060e0604051908101604052803373ffffffffffffffffffffffffffffffffffffffff1681526020018273ffffffffffffffffffffffffffffffffffffffff1681526020018560ff1681526020018681526020018381526020018481526020014281525060056000600654815260200190815260200160002060008201518160000160006101000a81548173ffffffffffffffffffffffffffffffffffffffff021916908373ffffffffffffffffffffffffffffffffffffffff16021790555060208201518160010160006101000a81548173ffffffffffffffffffffffffffffffffffffffff021916908373ffffffffffffffffffffffffffffffffffffffff16021790555060408201518160010160146101000a81548160ff021916908360ff160217905550606082015181600201556080820151816003015560a0820151816004015560c0820151816005015590505060066000815480929190600101919050555061128d856129d4565b5050505050565b61129c612199565b15156112a757600080fd5b600354891015156112b757600080fd5b87600160008b815260200190815260200160002060000190805190602001906112e1929190612c4d565b5086600160008b8152602001908152602001600020600101908051906020019061130c929190612c4d565b5085600160008b81526020019081526020016000206002019080519060200190611337929190612c4d565b5084600160008b81526020019081526020016000206003018190555083600160008b8152602001908152602001600020600601908051906020019061137d929190612c4d565b5082600160008b815260200190815260200160002060070190805190602001906113a8929190612c4d565b5080600160008b815260200190815260200160002060080160006101000a81548160ff02191690831515021790555081600260008b8152602001908152602001600020600201819055506113fb89612a6b565b505050505050505050565b60056020528060005260406000206000915090508060000160009054906101000a900473ffffffffffffffffffffffffffffffffffffffff16908060010160009054906101000a900473ffffffffffffffffffffffffffffffffffffffff16908060010160149054906101000a900460ff16908060020154908060030154908060040154908060050154905087565b600061149f612199565b15156114aa57600080fd5b600354841015156114ba57600080fd5b6002600085815260200190815260200160002060000160009054906101000a900460ff1660ff168360ff161015156114f157600080fd5b866002600086815260200190815260200160002060040160008560ff1660ff1681526020019081526020016000206000019080519060200190611535929190612c4d565b50856002600086815260200190815260200160002060040160008560ff1660ff168152602001908152602001600020600101908051906020019061157a929190612c4d565b50846002600086815260200190815260200160002060040160008560ff1660ff16815260200190815260200160002060020181905550816002600086815260200190815260200160002060040160008560ff1660ff16815260200190815260200160002060050160006101000a81548173ffffffffffffffffffffffffffffffffffffffff021916908373ffffffffffffffffffffffffffffffffffffffff1602179055506002600085815260200190815260200160002060040160008460ff1660ff168152602001908152602001600020600301600081548092919060010191905055506002600085815260200190815260200160002060040160008460ff1660ff168152602001908152602001600020600301549050837f489dd7cff78eb74ffa46d3b9840a51fff9a4be737b3b9c043e2e50cd9dd5298684898989868842604051808860ff1660ff16815260200180602001806020018781526020018681526020018573ffffffffffffffffffffffffffffffffffffffff1673ffffffffffffffffffffffffffffffffffffffff168152602001848152602001838103835289818151815260200191508051906020019080838360005b8381101561174f578082015181840152602081019050611734565b50505050905090810190601f16801561177c5780820380516001836020036101000a031916815260200191505b50838103825288818151815260200191508051906020019080838360005b838110156117b557808201518184015260208101905061179a565b50505050905090810190601f1680156117e25780820380516001836020036101000a031916815260200191505b50995050505050505050505060405180910390a250505050505050565b6000611809612199565b151561181457600080fd5b6003548310151561182457600080fd5b600460009054906101000a900460ff1660ff166002600085815260200190815260200160002060000160009054906101000a900460ff1660ff1610151561186a57600080fd5b6002600084815260200190815260200160002060000160009054906101000a900460ff16905060c060405190810160405280878152602001868152602001858152602001600181526020018481526020018373ffffffffffffffffffffffffffffffffffffffff168152506002600085815260200190815260200160002060040160008360ff1660ff168152602001908152602001600020600082015181600001908051906020019061191e929190612ccd565b50602082015181600101908051906020019061193b929190612ccd565b5060408201518160020155606082015181600301556080820151816004015560a08201518160050160006101000a81548173ffffffffffffffffffffffffffffffffffffffff021916908373ffffffffffffffffffffffffffffffffffffffff16021790555090505060026000848152602001908152602001600020600001600081819054906101000a900460ff168092919060010191906101000a81548160ff021916908360ff16021790555050827f5817efc44115dbcf035645ae3e02447bc65bbcdbca4a4f2c586d02caafa476be8288888860018842604051808860ff1660ff16815260200180602001806020018781526020018681526020018573ffffffffffffffffffffffffffffffffffffffff1673ffffffffffffffffffffffffffffffffffffffff168152602001848152602001838103835289818151815260200191508051906020019080838360005b83811015611aa8578082015181840152602081019050611a8d565b50505050905090810190601f168015611ad55780820380516001836020036101000a031916815260200191505b50838103825288818151815260200191508051906020019080838360005b83811015611b0e578082015181840152602081019050611af3565b50505050905090810190601f168015611b3b5780820380516001836020036101000a031916815260200191505b50995050505050505050505060405180910390a2505050505050565b6000806000806000806003548a101515611b7057600080fd5b600260008b815260200190815260200160002060000160009054906101000a900460ff1660ff168960ff16101515611ba757600080fd5b600654871115611bb75760065496505b86600654039350600092506000915060016006540390505b8381101515611cd2573373ffffffffffffffffffffffffffffffffffffffff166005600083815260200190815260200160002060000160009054906101000a900473ffffffffffffffffffffffffffffffffffffffff1673ffffffffffffffffffffffffffffffffffffffff16148015611c5e5750896005600083815260200190815260200160002060020154145b8015611c9257508860ff166005600083815260200190815260200160002060010160149054906101000a900460ff1660ff16145b8015611cb35750876005600083815260200190815260200160002060040154145b15611cc45780925060019150611cd2565b808060019003915050611bcf565b8183955095505050505094509492505050565b60608060008060035486101515611cfb57600080fd5b600260008781526020019081526020016000206001015485101515611d1f57600080fd5b600260008781526020019081526020016000206005016000868152602001908152602001600020905080600001816001018260020154828054600181600116156101000203166002900480601f016020809104026020016040519081016040528092919081815260200182805460018160011615610100020316600290048015611dea5780601f10611dbf57610100808354040283529160200191611dea565b820191906000526020600020905b815481529060010190602001808311611dcd57829003601f168201915b50505050509250818054600181600116156101000203166002900480601f016020809104026020016040519081016040528092919081815260200182805460018160011615610100020316600290048015611e865780601f10611e5b57610100808354040283529160200191611e86565b820191906000526020600020905b815481529060010190602001808311611e6957829003601f168201915b50505050509150935093509350509250925092565b611ea3612199565b1515611eae57600080fd5b600073ffffffffffffffffffffffffffffffffffffffff166000809054906101000a900473ffffffffffffffffffffffffffffffffffffffff1673ffffffffffffffffffffffffffffffffffffffff167f8be0079c531659141344cd1fd0a4f28419497f9722a3daafe3b4186f6b6457e060405160405180910390a360008060006101000a81548173ffffffffffffffffffffffffffffffffffffffff021916908373ffffffffffffffffffffffffffffffffffffffff160217905550565b60608060008060008060035488101515611f8657600080fd5b6002600089815260200190815260200160002060000160009054906101000a900460ff1660ff168760ff16101515611fbd57600080fd5b6002600089815260200190815260200160002060040160008860ff1660ff16815260200190815260200160002090508060000181600101826002015483600301548460050160009054906101000a900473ffffffffffffffffffffffffffffffffffffffff16848054600181600116156101000203166002900480601f0160208091040260200160405190810160405280929190818152602001828054600181600116156101000203166002900480156120b85780601f1061208d576101008083540402835291602001916120b8565b820191906000526020600020905b81548152906001019060200180831161209b57829003601f168201915b50505050509450838054600181600116156101000203166002900480601f0160208091040260200160405190810160405280929190818152602001828054600181600116156101000203166002900480156121545780601f1061212957610100808354040283529160200191612154565b820191906000526020600020905b81548152906001019060200180831161213757829003601f168201915b5050505050935095509550955095509550509295509295909350565b60008060009054906101000a900473ffffffffffffffffffffffffffffffffffffffff16905090565b60008060009054906101000a900473ffffffffffffffffffffffffffffffffffffffff1673ffffffffffffffffffffffffffffffffffffffff163373ffffffffffffffffffffffffffffffffffffffff1614905090565b6121f8612199565b151561220357600080fd5b61012060405190810160405280898152602001888152602001878152602001868152602001868152602001600081526020018581526020018481526020018215158152506001600060035481526020019081526020016000206000820151816000019080519060200190612278929190612ccd565b506020820151816001019080519060200190612295929190612ccd565b5060408201518160020190805190602001906122b2929190612ccd565b50606082015181600301556080820151816004015560a0820151816005015560c08201518160060190805190602001906122ed929190612ccd565b5060e082015181600701908051906020019061230a929190612ccd565b506101008201518160080160006101000a81548160ff021916908315150217905550905050608060405190810160405280600060ff168152602001600081526020018381526020016000151581525060026000600354815260200190815260200160002060008201518160000160006101000a81548160ff021916908360ff160217905550602082015181600101556040820151816002015560608201518160030160006101000a81548160ff0219169083151502179055509050506003600081548092919060010191905055505050505050505050565b60026020528060005260406000206000915090508060000160009054906101000a900460ff16908060010154908060020154908060030160009054906101000a900460ff16905084565b600460009054906101000a900460ff1681565b6000612449612199565b151561245457600080fd5b6003548210151561246457600080fd5b600260008381526020019081526020016000206001015490506060604051908101604052808681526020018581526020018481525060026000848152602001908152602001600020600501600083815260200190815260200160002060008201518160000190805190602001906124dc929190612ccd565b5060208201518160010190805190602001906124f9929190612ccd565b5060408201518160020155905050600260008381526020019081526020016000206001016000815480929190600101919050555061253682612a6b565b5050505050565b612545612199565b151561255057600080fd5b6003548210151561256057600080fd5b60026000838152602001908152602001600020600101548110151561258457600080fd5b8460026000848152602001908152602001600020600501600083815260200190815260200160002060000190805190602001906125c2929190612c4d565b50836002600084815260200190815260200160002060050160008381526020019081526020016000206001019080519060200190612601929190612c4d565b50826002600084815260200190815260200160002060050160008381526020019081526020016000206002018190555061263a82612a6b565b5050505050565b6001602052806000526040600020600091509050806000018054600181600116156101000203166002900480601f0160208091040260200160405190810160405280929190818152602001828054600181600116156101000203166002900480156126ed5780601f106126c2576101008083540402835291602001916126ed565b820191906000526020600020905b8154815290600101906020018083116126d057829003601f168201915b505050505090806001018054600181600116156101000203166002900480601f01602080910402602001604051908101604052809291908181526020018280546001816001161561010002031660029004801561278b5780601f106127605761010080835404028352916020019161278b565b820191906000526020600020905b81548152906001019060200180831161276e57829003601f168201915b505050505090806002018054600181600116156101000203166002900480601f0160208091040260200160405190810160405280929190818152602001828054600181600116156101000203166002900480156128295780601f106127fe57610100808354040283529160200191612829565b820191906000526020600020905b81548152906001019060200180831161280c57829003601f168201915b505050505090806003015490806004015490806005015490806006018054600181600116156101000203166002900480601f0160208091040260200160405190810160405280929190818152602001828054600181600116156101000203166002900480156128d95780601f106128ae576101008083540402835291602001916128d9565b820191906000526020600020905b8154815290600101906020018083116128bc57829003601f168201915b505050505090806007018054600181600116156101000203166002900480601f0160208091040260200160405190810160405280929190818152602001828054600181600116156101000203166002900480156129775780601f1061294c57610100808354040283529160200191612977565b820191906000526020600020905b81548152906001019060200180831161295a57829003601f168201915b5050505050908060080160009054906101000a900460ff16905089565b61299c612199565b15156129a757600080fd5b6129b081612b53565b50565b60008082840190508381101515156129ca57600080fd5b8091505092915050565b60006002600083815260200190815260200160002060030160006101000a81548160ff02191690831515021790555060016000828152602001908152602001600020600401546001600083815260200190815260200160002060050154101515612a685760016002600083815260200190815260200160002060030160006101000a81548160ff0219169083151502179055505b50565b60008060006001600085815260200190815260200160002060030154600160008681526020019081526020016000206004018190555060026000858152602001908152602001600020600101549250600091505b82821015612b4457600260008581526020019081526020016000206005016000838152602001908152602001600020600201549050612b1d8160016000878152602001908152602001600020600401546129b390919063ffffffff16565b60016000868152602001908152602001600020600401819055508180600101925050612abf565b612b4d846129d4565b50505050565b600073ffffffffffffffffffffffffffffffffffffffff168173ffffffffffffffffffffffffffffffffffffffff1614151515612b8f57600080fd5b8073ffffffffffffffffffffffffffffffffffffffff166000809054906101000a900473ffffffffffffffffffffffffffffffffffffffff1673ffffffffffffffffffffffffffffffffffffffff167f8be0079c531659141344cd1fd0a4f28419497f9722a3daafe3b4186f6b6457e060405160405180910390a3806000806101000a81548173ffffffffffffffffffffffffffffffffffffffff021916908373ffffffffffffffffffffffffffffffffffffffff16021790555050565b828054600181600116156101000203166002900490600052602060002090601f016020900481019282601f10612c8e57805160ff1916838001178555612cbc565b82800160010185558215612cbc579182015b82811115612cbb578251825591602001919060010190612ca0565b5b509050612cc99190612d4d565b5090565b828054600181600116156101000203166002900490600052602060002090601f016020900481019282601f10612d0e57805160ff1916838001178555612d3c565b82800160010185558215612d3c579182015b82811115612d3b578251825591602001919060010190612d20565b5b509050612d499190612d4d565b5090565b612d6f91905b80821115612d6b576000816000905550600101612d53565b5090565b905600a165627a7a723058200e81811b23c273699a435a8c939a526bf98cac3130005b48e7d782c830b0b4b40029",
  "source": "pragma solidity ^0.4.23;\r\n\r\nimport \"./SafeMath.sol\";\r\nimport \"./Ownable.sol\";\r\n\r\n//\r\ncontract TollBoothsManager is Ownable {\r\n\tusing SafeMath for uint;\r\n\r\n    struct TicketTB {\r\n        string name;\r\n        string vehicles;\r\n        uint price;\r\n        uint version;\r\n        uint tollBoothId;\r\n        address paymentAddress;\r\n    }\r\n    struct RepairTB {\r\n        string time;\r\n        string description;\r\n        uint costs;\r\n    }\r\n    \r\n    struct TollBooth {\r\n        string name;\r\n        string location;\r\n        string description;\r\n        uint256 investment;//first investment\r\n        uint256 totalInvestment;\r\n        uint256 totalRevenue;\r\n        string startTime;\r\n        string operatorUnit;\r\n        bool activate;\r\n    }\r\n    struct TollBoothAdditional {\r\n        uint8 numTickets;\r\n        uint numAdditionalRepairs;\r\n        uint taxCode;\r\n        bool completeTarget;\r\n        mapping(uint8 => TicketTB) tickets;\r\n        mapping(uint => RepairTB) additionalRepairs;\r\n    }\r\n    //\r\n    mapping(uint => TollBooth) public tollBooths;\r\n    mapping(uint => TollBoothAdditional) public tollBoothsAdditional;\r\n    uint public totalTollBooths;\r\n    uint8 public maxTicket;\r\n    //\r\n    struct buyTicket{\r\n\t\taddress buyer;\r\n        address paymentAddress;\r\n\t\tuint8 ticketId;\r\n\t\tuint tollBoothId;\r\n        uint price;\r\n\t\tuint clientTime;\r\n\t\tuint time;\r\n\t}\r\n\tmapping(uint => buyTicket) public buyTickets;\r\n\tuint public currentBuyTickets;\r\n    //\r\n    event CreateTicket(uint indexed tollBoothId, uint8 ticketId, string name, string vehicles, uint price, uint version, address paymentAddress, uint time);\r\n    event TicketUpdate(uint indexed tollBoothId, uint8 ticketId, string name, string vehicles, uint price, uint version, address paymentAddress, uint time);\r\n    event userBuyTicket(address indexed buyer, uint indexed tollBoothId, uint8 ticketId, uint price, address paymentAddress, uint time);\r\n    //\r\n    constructor () public {\r\n        maxTicket = 10;\r\n        totalTollBooths = 0;\r\n    }\r\n    //@\r\n    function createNewTollBooth(\r\n        string _name, \r\n        string _location,\r\n        string _description,\r\n        uint256 _investment,\r\n        string _startTime,\r\n        string _operatorUnit,\r\n        uint256 _taxCode,\r\n        bool _activate) public onlyOwner {\r\n            tollBooths[totalTollBooths] = TollBooth({\r\n                name: _name,\r\n                location: _location,\r\n                description: _description,\r\n                investment: _investment,\r\n                totalInvestment: _investment,\r\n                totalRevenue: 0,\r\n                startTime: _startTime,\r\n                operatorUnit: _operatorUnit,\r\n                activate: _activate\r\n            });\r\n            tollBoothsAdditional[totalTollBooths] = TollBoothAdditional({\r\n                numTickets: 0,\r\n                numAdditionalRepairs: 0,\r\n                taxCode: _taxCode,\r\n                completeTarget: false\r\n            });\r\n            totalTollBooths++;\r\n        }\r\n    //@\r\n    function updateTollBooth(\r\n        uint _id,\r\n        string _name, \r\n        string _location,\r\n        string _description,\r\n        uint256 _investment,\r\n        string _startTime,\r\n        string _operatorUnit,\r\n        uint256 _taxCode,\r\n        bool _activate) public onlyOwner {\r\n            if(_id >= totalTollBooths)revert();\r\n            tollBooths[_id].name = _name;\r\n            tollBooths[_id].location = _location;\r\n            tollBooths[_id].description = _description;\r\n            tollBooths[_id].investment = _investment;\r\n            tollBooths[_id].startTime = _startTime;\r\n            tollBooths[_id].operatorUnit = _operatorUnit;\r\n            tollBooths[_id].activate = _activate;\r\n            //\r\n            tollBoothsAdditional[_id].taxCode = _taxCode;\r\n            updateTotalInvestment(_id);\r\n        }\r\n\r\n    //@\r\n    function updateTotalInvestment(uint _id) private {\r\n        tollBooths[_id].totalInvestment = tollBooths[_id].investment;\r\n        uint numRepairs = tollBoothsAdditional[_id].numAdditionalRepairs;\r\n        for (uint i = 0; i < numRepairs; i++){\r\n            uint costs = tollBoothsAdditional[_id].additionalRepairs[i].costs;\r\n            tollBooths[_id].totalInvestment = tollBooths[_id].totalInvestment.add(costs);\r\n        }\r\n        checkCompleteTarget(_id);\r\n    }\r\n    //@\r\n    function checkCompleteTarget(uint _id) private {\r\n        tollBoothsAdditional[_id].completeTarget = false;\r\n        if(tollBooths[_id].totalRevenue >= tollBooths[_id].totalInvestment){\r\n            tollBoothsAdditional[_id].completeTarget = true;\r\n        }\r\n    }\r\n\r\n\r\n    //@\r\n    function createTicketTB(\r\n        string _name, \r\n        string _vehicles, \r\n        uint _price, \r\n        uint _tbid, \r\n        address _paymentAddress) public onlyOwner {\r\n            if(_tbid >= totalTollBooths)revert();\r\n            require(tollBoothsAdditional[_tbid].numTickets < maxTicket);\r\n            uint8 _id = tollBoothsAdditional[_tbid].numTickets;\r\n            tollBoothsAdditional[_tbid].tickets[_id] = TicketTB({\r\n                name: _name,\r\n                vehicles: _vehicles,\r\n                price: _price,\r\n                version: 1,\r\n                tollBoothId: _tbid,\r\n                paymentAddress: _paymentAddress\r\n            });\r\n            tollBoothsAdditional[_tbid].numTickets++;\r\n            emit CreateTicket(_tbid, _id, _name, _vehicles, _price, 1, _paymentAddress, now);\r\n    }\r\n\r\n    //@\r\n    function updateTicketTB(\r\n        string _name, \r\n        string _vehicles, \r\n        uint _price, \r\n        uint _tbid, \r\n        uint8 _id, \r\n        address _paymentAddress) public onlyOwner {\r\n            if(_tbid >= totalTollBooths)revert();\r\n            require(_id < tollBoothsAdditional[_tbid].numTickets);\r\n            //\r\n            tollBoothsAdditional[_tbid].tickets[_id].name = _name;\r\n            tollBoothsAdditional[_tbid].tickets[_id].vehicles = _vehicles;\r\n            tollBoothsAdditional[_tbid].tickets[_id].price = _price;\r\n            tollBoothsAdditional[_tbid].tickets[_id].paymentAddress = _paymentAddress;\r\n            tollBoothsAdditional[_tbid].tickets[_id].version++;\r\n            uint _version = tollBoothsAdditional[_tbid].tickets[_id].version;\r\n            emit TicketUpdate(_tbid, _id, _name, _vehicles, _price, _version, _paymentAddress, now);\r\n    }\r\n\r\n    //@\r\n    function getTicketDetails(uint _tbid, uint8 _id) public view returns(string, string, uint, uint, address) {\r\n        if(_tbid >= totalTollBooths)revert();\r\n        require(_id < tollBoothsAdditional[_tbid].numTickets);\r\n        TicketTB ticket = tollBoothsAdditional[_tbid].tickets[_id];\r\n        return(ticket.name, ticket.vehicles, ticket.price, ticket.version, ticket.paymentAddress);\r\n    }\r\n\r\n    //@\r\n    function addRepairTB(\r\n        string _time, \r\n        string _description, \r\n        uint _costs, \r\n        uint _tbid) public onlyOwner {\r\n            if(_tbid >= totalTollBooths)revert();\r\n            uint _id = tollBoothsAdditional[_tbid].numAdditionalRepairs;\r\n            tollBoothsAdditional[_tbid].additionalRepairs[_id] = RepairTB({\r\n                time: _time,\r\n                description: _description,\r\n                costs: _costs\r\n            });\r\n            tollBoothsAdditional[_tbid].numAdditionalRepairs++;\r\n            updateTotalInvestment(_tbid);\r\n    }\r\n\r\n    //@\r\n    function updateRepairTB(\r\n        string _time, \r\n        string _description, \r\n        uint _costs, \r\n        uint _tbid, \r\n        uint _id) public onlyOwner {\r\n            if(_tbid >= totalTollBooths)revert();\r\n            require(_id < tollBoothsAdditional[_tbid].numAdditionalRepairs);\r\n            //\r\n            tollBoothsAdditional[_tbid].additionalRepairs[_id].time = _time;\r\n            tollBoothsAdditional[_tbid].additionalRepairs[_id].description = _description;\r\n            tollBoothsAdditional[_tbid].additionalRepairs[_id].costs = _costs;\r\n            updateTotalInvestment(_tbid);\r\n    }\r\n\r\n    //@\r\n    function getRepairDetails(uint _tbid, uint _id) public view returns(string, string, uint) {\r\n        if(_tbid >= totalTollBooths)revert();\r\n        require(_id < tollBoothsAdditional[_tbid].numAdditionalRepairs);\r\n        RepairTB repair = tollBoothsAdditional[_tbid].additionalRepairs[_id];\r\n        return(repair.time, repair.description, repair.costs);\r\n    }\r\n\r\n    //---------------------\r\n    //@\r\n    function buyTicketTB(uint _tbid, uint8 _id, uint _clientTime) public payable {\r\n        if(_tbid >= totalTollBooths)revert();\r\n        require(_id < tollBoothsAdditional[_tbid].numTickets);\r\n        uint _price = tollBoothsAdditional[_tbid].tickets[_id].price;\r\n        require(msg.value >= _price);\r\n        address _paymentAddress = tollBoothsAdditional[_tbid].tickets[_id].paymentAddress;\r\n        //_paymentAddress.transfer(_price);\r\n        tollBooths[_tbid].totalRevenue = tollBooths[_tbid].totalRevenue.add(msg.value);\r\n        buyTickets[currentBuyTickets] = buyTicket({\r\n            buyer: msg.sender,\r\n            paymentAddress: _paymentAddress,\r\n            ticketId: _id,\r\n            tollBoothId: _tbid,\r\n            price: _price,\r\n            clientTime: _clientTime,\r\n            time: now\r\n        });\r\n        currentBuyTickets++;\r\n        checkCompleteTarget(_tbid);\r\n        //emit userBuyTicket(msg.sender, _tbid, _id, msg.value, paymentAddress, now);\r\n    }\r\n    //@\r\n    function getBuyTicketTB(uint _tbid, uint8 _id, uint _clientTime, uint _maxQuery) public view returns(bool, uint) {\r\n        if(_tbid >= totalTollBooths)revert();\r\n        require(_id < tollBoothsAdditional[_tbid].numTickets);\r\n        if(_maxQuery > currentBuyTickets)_maxQuery = currentBuyTickets;\r\n        uint maxQuery = currentBuyTickets-_maxQuery;\r\n        uint buyId = 0;\r\n        bool result = false;\r\n        for (uint i = currentBuyTickets-1; i >= maxQuery; i--){\r\n            if(buyTickets[i].buyer == msg.sender && buyTickets[i].tollBoothId == _tbid && buyTickets[i].ticketId == _id && buyTickets[i].clientTime == _clientTime){\r\n                    buyId = i;\r\n                    result = true;\r\n                    break;\r\n            }\r\n        }\r\n        return(result, buyId);\r\n    }\r\n \r\n    \r\n    //@\r\n    /*function _validateId(bytes32 _id) internal pure returns(bytes32) {\r\n        return _id;\r\n    }\r\n    //@\r\n    function indexOf(bytes32[] memory self, bytes32 value) public view returns (bool){\r\n        for (uint i = 0; i < self.length; i++)if (self[i] == value) return true;\r\n        return false;\r\n    }*/\r\n}\r\n",
  "sourcePath": "C:\\wamp64\\www\\Working\\Blockchain\\Tron\\TollBoothsManager\\contracts\\TollBoothsManager.sol",
  "compiler": {
    "name": "solc",
    "version": "0.4.24-develop.2018.8.28+commit.3ba0cdec.mod.Emscripten.clang"
  },
  "schemaVersion": "2.0.1",
  "updatedAt": "2019-01-12T21:21:15.498Z"
}